:020000040800F2
:1000000000200020F13E0008C92A0008CB2A000881
:1000100000000000000000000000000000000000E0
:10002000000000000000000000000000CF2A0008CF
:100030000000000000000000D12A0008D32A0008B8
:10004000413F0008512B0008412B0008413F0008A8
:10005000413F0008DB2A0008DD2A0008E12A0008E9
:1000600000000000413F0008413F0008212B00082C
:10007000413F0008413F000800000000413F0008E8
:1000800000000000413F00080000000000000000E8
:10009000413F000800000000413F0008413F0008C8
:1000A000413F0008413F0008413F0008413F000830
:1000B000312B0008413F0008000000000000000054
:1000C00010B5064C2378002B07D1054B002B02D02E
:1000D000044800E000BF0123237010BD9C010020F4
:1000E00000000000E0F00008044B10B5002B03D026
:1000F0000349044800E000BF10BDC04600000000F6
:10010000A0010020E0F000080023C25C0133002AB7
:10011000FBD1581E7047000002B4714649084900DF
:10012000095C49008E4402BC7047C04603B4714666
:10013000490840004900095E49008E4403BC7047ED
:1001400003B47146490840004900095A49008E44E9
:1001500003BC7047002243088B4274D303098B42CF
:100160005FD3030A8B4244D3030B8B4228D3030C87
:100170008B420DD3FF22090212BA030C8B4202D329
:100180001212090265D0030B8B4219D300E0090A51
:10019000C30B8B4201D3CB03C01A5241830B8B425A
:1001A00001D38B03C01A5241430B8B4201D34B0343
:1001B000C01A5241030B8B4201D30B03C01A5241A8
:1001C000C30A8B4201D3CB02C01A5241830A8B422D
:1001D00001D38B02C01A5241430A8B4201D34B0216
:1001E000C01A5241030A8B4201D30B02C01A52417A
:1001F000CDD2C3098B4201D3CB01C01A524183092E
:100200008B4201D38B01C01A524143098B4201D367
:100210004B01C01A524103098B4201D30B01C01A92
:100220005241C3088B4201D3CB00C01A524183080C
:100230008B4201D38B00C01A524143088B4201D339
:100240004B00C01A5241411A00D201465241104699
:100250007047FFE701B5002000F0F0F802BDC0468E
:100260000029F7D076E7704703460B437FD400227E
:1002700043088B4274D303098B425FD3030A8B423A
:1002800044D3030B8B4228D3030C8B420DD3FF22A4
:10029000090212BA030C8B4202D31212090265D072
:1002A000030B8B4219D300E0090AC30B8B4201D325
:1002B000CB03C01A5241830B8B4201D38B03C01A6C
:1002C0005241430B8B4201D34B03C01A5241030BE3
:1002D0008B4201D30B03C01A5241C30A8B4201D394
:1002E000CB02C01A5241830A8B4201D38B02C01A3F
:1002F0005241430A8B4201D34B02C01A5241030AB6
:100300008B4201D30B02C01A5241CDD2C3098B429A
:1003100001D3CB01C01A524183098B4201D38B0117
:10032000C01A524143098B4201D34B01C01A5241BA
:1003300003098B4201D30B01C01A5241C3088B42FF
:1003400001D3CB00C01A524183088B4201D38B00EA
:10035000C01A524143088B4201D34B00C01A52418C
:10036000411A00D201465241104670475DE0CA0F63
:1003700000D04942031000D34042534000229C4623
:1003800003098B422DD3030A8B4212D3FC2289012D
:1003900012BA030A8B420CD3890192118B4208D303
:1003A000890192118B4204D389013AD0921100E065
:1003B0008909C3098B4201D3CB01C01A5241830979
:1003C0008B4201D38B01C01A524143098B4201D3A6
:1003D0004B01C01A524103098B4201D30B01C01AD1
:1003E0005241C3088B4201D3CB00C01A524183084B
:1003F0008B4201D38B00C01A5241D9D243088B42A1
:1004000001D34B00C01A5241411A00D20146634643
:1004100052415B10104601D34042002B00D54942A7
:10042000704763465B1000D3404201B5002000F0E6
:1004300005F802BD0029F8D016E770477047C0469E
:100440008446100062468C461900634600E0C046B0
:100450001FB501F035FA002801D40021C8421FBDA4
:1004600010B501F085F94042013010BD10B501F022
:1004700027FA002801DB002010BD012010BDC04676
:1004800010B501F01DFA002801DD002010BD01208B
:1004900010BDC04610B501F0ADF9002801DC002008
:1004A00010BD012010BDC04610B501F0A3F9002811
:1004B00001DA002010BD012010BDC046002B11D173
:1004C000002A0FD1002900D1002802D00021C94301
:1004D000080007B4024802A14018029003BDC046BC
:1004E0005DFFFFFF03B4684601B5029800F052F8C3
:1004F000019B9E4602B00CBC7047C046F0B5CE468C
:10050000474680B5070099463B0C9C4613041B0CDC
:100510001D000E0061460004140C000C45434B43C3
:1005200060436143C0182C0C20188C46834203D9C9
:1005300080235B029846C444494679437243030CC6
:1005400063442D042D0CC918000440198918C0BC3F
:10055000B946B046F0BDC04670B500220C4B040051
:100560000D00FFF7A1FF002804D12000290001F0B1
:100570009DFD70BD064B00222000290001F004FA09
:1005800001F094FD80231B069C466044F1E7C046C1
:100590000000E041F0B557464E464546DE46E0B520
:1005A00004000D009246994683B08B4230D82DD07E
:1005B0004946504601F03CFE29000600200001F0AB
:1005C00037FE331A9846203B9B4633D45A4653464F
:1005D000934042461F00534693401E00AF423AD814
:1005E000AF4200D178E05B46A41BBD41002B00DA8E
:1005F00075E0002200230092019301235A469340A4
:100600000193012342469340009328E08242CFD9D0
:1006100000220023009201930C9B002B01D01C6050
:100620005D600098019903B0F0BCBB46B246A94694
:10063000A046F0BD424620239B1A5246DA4041466E
:1006400013004A468A40170042461F4353469340D0
:100650001E00AF42C4D900220023009201934346FA
:10066000002BD9D0FB0772081A4346467B080EE0E0
:10067000AB4201D1A2420CD8A41A9D4101202419F9
:100680006D410021013E24184D41002E06D0AB42A1
:10069000EED9013E24196D41002EF8D10098019940
:1006A0005B4600196941002B24DB2B005A46444667
:1006B000D3402A00E2401C005B461500002B2ADBD9
:1006C00026009E40330026004746BE403200801A76
:1006D0009941009001919FE7A342BCD883E742462D
:1006E000202300219B1A0022009101920122DA406E
:1006F000019286E7424620239B1A2A0046469A40EA
:100700002300F340444613432A00E2401C005B46AA
:100710001500002BD4DA42462F00202326009740F4
:100720009B1ADE403B003343CDE7C046F8B5CE46CA
:10073000474643025B0A4E02DA009446720A91462B
:1007400045004A0080B52D0E1F00C40F120EC90FC0
:10075000B609FF2A5BD0012041408C4239D0A81A4B
:1007600000285ADD002A6AD0FF2D00D1D9E080226E
:10077000D20416431B2800DCE9E001206346181A66
:10078000430100D4B4E080018709380001F032FD54
:1007900005388740854200DCCCE02D1AB54838404A
:1007A000430704D00F230340042B00D0043043013F
:1007B00000D4A0E06A1CFE2D00D18DE08001470A24
:1007C000D2B2D0053843E4072043C0BCB946B04696
:1007D000F8BDA81A8046002845DD002A70D0FF2DFC
:1007E00000D19EE08023DB041E4343461B2B00DC2C
:1007F000D2E00120604443017AD50135FF2D6BD052
:1008000001239D4A0340400810401843C8E7002ECA
:1008100020D08C4223D02800FF38002839D0571B25
:10082000002D00D09DE06346002B00D1DBE07B1E55
:10083000012F00D10DE1FF2F71D01F0098E0002E95
:1008400000D1A7E0421E012800D1E6E0FF2868D0D1
:1008500010008FE701204140A14200D07FE7FF2038
:1008600040428046A8444046002838D0511B002D05
:1008700000D1AEE0FF2A00D1DFE080236046DB0438
:10088000184384461B2900DCD9E00120150080199B
:10089000B1E7FE206A1C104271D1002D00D0A6E005
:1008A0006346002B00D1D9E00022002E00D188E75A
:1008B000981B430100D4E1E063460C00F01A6FE797
:1008C000002E00D1B7E00200013A012800D19CE0DF
:1008D000FF2826D0904688E7FF22002771E7FE20F8
:1008E0006A1C104264D0FF2AF6D0150066447008D6
:1008F000430700D056E7C308FF2D12D05B025F0A02
:10090000EAB25EE76246002A00D196E0002E08D0E7
:100910008022D203134204D04846104201D10C0079
:100920004B46002BD8D08027FF031F437F02FF22B6
:100930007F0A46E720233A00451B38000135EA408C
:100940005D1BA840431E98410025104328E7202343
:100950001B1A32009E40C2403000431E9841104393
:100960000CE7FF2ADBD080236046DB041843844673
:100970001B2F56DD01200C001500301A00E76346DE
:100980009F1B7B013DD4002F00D0FEE600240022F7
:10099000002716E70500AFE7320043464146DA403C
:1009A00020235B1A9E403000431E9841104321E7EC
:1009B000002DA7D16346002B59D00022002E00D174
:1009C000FFE630006044430192D52A4B01351840C0
:1009D0008EE76346002B47D04B1E012915D0FF2917
:1009E0002BD019004EE70C004B463D0084E76246D1
:1009F000002A8BD1002E92D180270024FF22FF03F2
:100A0000DFE663460C00F71ABFE6300060440125BC
:100A1000430100D46CE70225F2E663460125981BEA
:100A2000AEE6202364466046FC40DF1BB840431E10
:100A3000984120439FE705005EE74B4671E720237E
:100A400065466046CD40591A8840431E9841284368
:100A50001CE763460C000125F01A91E6002E95D0A4
:100A60000C004F460022ACE64B460D0044E74F46D3
:100A70000022A6E6FFFFFFFBFFFFFF7D002800D05E
:100A800036E7002400279CE670B5051E0ED001F065
:100A9000B1FB9E2304001B1A962B0CDC082801DDF9
:100AA000083CA5406D026D0AD8B201E00020002587
:100AB000C005284370BD992B09DD020029001B32B7
:100AC00091404A1E91410522121AD5400D43052C32
:100AD00012DC29000C4E31406A0709D00F20284053
:100AE000042805D004314A0102D59F2331401B1B45
:100AF00089014D0AD8B2DBE7621F95402900024EFA
:100B000031406A07F4D0E9E7FFFFFFFBF0B54F463D
:100B10004646D6460D000400C0B51F00110028034C
:100B2000620F400A10437A00520DE3003C039146E5
:100B3000640AFA0F4F0F6E0027439246B846760DAF
:100B4000ED0FC900954200D199E04C46341BA446F4
:100B5000002C00DC7CE04A46002A00D1B8E0C54AFF
:100B6000964200D11CE180223C0012041443A046AE
:100B70006246382A00DD61E11F2A00DDCCE16446CF
:100B80002022121B444694400F00A1466446914027
:100B9000E7404C464A1E91413C434246214364464D
:100BA000E240801A5C1AA3429B415F42C71B3B0292
:100BB00000D4D0E07F027F0A002F00D1FFE0380090
:100BC00001F018FB01000839202322005B1A8F4036
:100BD000DA408C401743B14200DAFFE0891B4B1C1E
:100BE0001F2B00DDA8E020223900D21A20009440FB
:100BF0009140D840621E9441DF40002601430C43DF
:100C0000630709D00F232340042B05D0231DA342E3
:100C1000A44164423F191C003B0200D49EE0954B66
:100C200001369E4200D1B7E0934AE40817407B07A3
:100C300071057F0223433F0B4A0D12053A43ED072E
:100C40002A4318001100E0BCBA46B146A846F0BDE0
:100C5000002C4BD04C46A41BA446002E00D023E110
:100C600004001C4300D1AFE16246541E012A00D1AA
:100C700015E2804DAC4500D1C8E1A4461BE14A46CF
:100C8000B21A9446002A00DCACE04A46002A43D05F
:100C9000784A964200D1AFE180223C00120414430E
:100CA000A0466246382A67DC1F2A00DC5FE147461F
:100CB000203AD7406246202A05D064464022121BC3
:100CC0004446944021434A1E91410C003C4357E066
:100CD0003A000A4300D105E12200013A012C00D17B
:100CE00082E1644CA4455BD0944641E7634C771C99
:100CF000274200D0C4E004001C43002E00D069E16C
:100D0000002C00D1BFE144460C4300D0D0E14207A3
:100D1000DB081343C00829E03A000A4300D170E120
:100D200062466446013A012C00D1E0E0514CA445F2
:100D300000D161E19446B4E73A001F39CA4011007E
:100D4000202B03D04022D31A9F403C43631E9C417A
:100D5000002700260C43630700D053E7B446E4089D
:100D60007B072343F808434A94451DD06246070396
:100D700052053F0B520D60E744460C43621E9441FE
:100D8000E4189C429B415F423F183B02E3D5394B3C
:100D900001369E4200D0B5E03200002700234CE728
:100DA0004207DB081343C0081A00024300D1E1E107
:100DB00080273F0307433F032E4A3F0B3DE72000B8
:100DC00001F018FA010018311F2900DCFCE6083890
:100DD000844027000024B14200DBFFE6264A761A51
:100DE00017400DE7002A2FD04A46921B9446002E4A
:100DF00000D1ADE01F4A914500D10FE180221204DD
:100E000010436246382A00DD0FE11F2A00DD80E131
:100E1000644620221E00121B674604009340944043
:100E2000FE405A1E9341F84034431C4380446418EA
:100E30008C42BF417F424E464744A6E742460A43A2
:100E400011004A1E9141ADE60C4C721C224200D0AA
:100E5000A1E002001A43002E00D0FAE0002A00D1DF
:100E600045E13A000A4300D046E14207DB0813435C
:100E7000C0087BE7FF070000FFFF7FFFFE070000C1
:100E800047465C1AC21BA342BF417F42B9461700C6
:100E90004A46BF1A3A0200D58DE023003B4300D0FA
:100EA0008AE60020002561E7B44CA14500D1ADE001
:100EB0008024240420436446382C3DDC62461F2CE9
:100EC00000DDB7E020251E002D1B0400AB40AC4028
:100ED000D640D04042465D1EAB413443121A904684
:100EE00023432CE04207DB081343C0083BE75C18B0
:100EF0009C429B4140445B42C71801263B0200D400
:100F000029E702269E4A63081740012214401C4329
:100F1000FB071C437F0873E64446203AD4406246F0
:100F2000202A05D067464022D21B474697403943C6
:100F30004A1E9141214335E60343581E8341CC1A92
:100F4000A142BF4143467F4255464E46DF1B2EE637
:100F500002001A4300D1BDE062466446013A012C0A
:100F600000D1E5E0854CA44558D0944649E7644655
:100F70002022121B444694400F00A1466446914033
:100F8000E7404C464A1E91413C4342460C43614671
:100F9000CA408018F4E6794CA24200D1FDE6591807
:100FA00099429B4140445F42C719FC07490816001B
:100FB0000C437F08CFE6CC1AA142BF4143467F4293
:100FC000181A5546C71BF7E5C9087B0755460B435A
:100FD000F808C8E6002C00D081E043460B4315D149
:100FE000802000250003E3E65C1AA3429B41C71B57
:100FF0005B420126FF1ADAE54207DB081343C0080B
:10100000D2E64207DB081343C008ACE6434642463B
:10101000C9085B0755460B43D008C5E64346424620
:101020005B07C9080B43D008BEE603431C00631EE0
:101030009C41FCE60200203CE24014006246202A6B
:1010400003D04025AD1AA8400343581E83412343D3
:1010500075E7002AE2D03A000A43CDD04207DB0808
:1010600013438022C0081203104206D0FC08144229
:1010700003D12000CB087A0713435A0FDB00520735
:10108000DB08134390E643460B4300D109E7434690
:101090004246C9085B0755460B43D00866E6CC1AA2
:1010A000A14289413F1A4942554601267F1A7EE5F1
:1010B00042465C1A871AA34292415242BF1A3A0230
:1010C0003DD5CC1AA1428941434649421F1A554693
:1010D0007F1A95E57B07C9080B43F80843E64446A9
:1010E000DB080C4330D142071343C0085CE67B07A2
:1010F000C9080B43F80839E65C189C429B41404400
:101100005B42C7183B0200D425E61D4B01261F4059
:1011100021E60400203AD4406246202A04D040222E
:101120006646921B904003435A1E93411C437EE641
:101130005C188C428941404449424718DDE623004F
:101140003B4300D1ADE606E6440723438024C008B4
:101150002403204208D04246D608264204D15546F0
:101160003000CB0851070B435A0FDB00DB08520756
:10117000134319E60023014A1F005EE5FF07000044
:10118000FFFF7FFFF0B557464E464546DE46E0B5C9
:10119000814605000C03480092461F0085B0240BD1
:1011A000400DCE0F002800D156E1D44B984200D11B
:1011B00072E16B0FE4001C4380231B042343984619
:1011C000CF4BED009B4600239946834400933C039C
:1011D0007B005046240B5B0DFF0F002B00D11FE15D
:1011E000C64A934200D162E1C549420F8C46E400F1
:1011F00059461443802263441204CB1A14439B467D
:10120000C200002033007B409A464B460F2B27D864
:10121000BC499B00CB589F46B246009B022B16D080
:10122000032B00D18EE2012B00D0D9E00023002453
:10123000002552461B052343D207134328001900FB
:1012400005B0F0BCBB46B246A946A046F0BD00249E
:101250000025AA4BEDE7BA46A04615000090DCE752
:10126000444500D2C7E100D1C2E101235B429C4664
:101270002E0040460025E3442302140E1C431B0CA1
:10128000994623041F0C1202494600920197FEF76B
:10129000E7FF02007A430B04310C804619438A426F
:1012A00007D901235B429C460919E0448C4200D8CF
:1012B00007E2881A4946FEF7D3FF09048C46310439
:1012C0006646019A090C4243030031438A4204D91D
:1012D0000919013B8C4200D8EDE1881A42461204FC
:1012E0001A4390464146009B0E041B0C1F000293BC
:1012F000009B360C1B04190C0B007343120C7E432D
:10130000039151437A431F0CBC4676186644B142A0
:1013100003D9802149028C466244310C8A18310479
:101320001E04360C8E19904202D312D1B54210D24F
:101330004346591E009B9C4665441F009D429B41AD
:101340005B421B19C018844200D2A0E100D19BE18E
:101350008846AE1BB542AD41801A6D42401B8442A7
:1013600000D1D5E14946FEF77BFF019A0B044243C9
:10137000310C050019438A4200D96CE1881A4946AC
:10138000FEF76EFF019A360442430904360C03004F
:101390000E43B24200D953E10398B61A02002D045D
:1013A0001D43029F2B041B0C5A437B439C46290C74
:1013B0004843130C844463447943984203D9802002
:1013C000400284466144180C12041B04120C41189C
:1013D0009B188E4200D2FFE000D1FAE001231D43AA
:1013E000494A5A44002A00DCAAE06B0700D03DE1DC
:1013F000ED084346DB0106D54246444B1A40904671
:101400008022D2005A44424B9A4200DD1FE74346F5
:101410005B071D43434652055C02240B530D08E74E
:101420005246224300D17BE0002C00D1FAE020009C
:1014300000F0E0FE02000B3A1D2301009B1A524609
:101440000839DA408C40144352468A40314B5844A4
:101450009B4683440020D5E64B462343984644D020
:10146000002C00D1CEE0200000F0C4FE01000200FC
:101470000B391D235B1A49461000D94008388440B7
:101480000B004D462343984685402348831A9B46CC
:101490000023994600939AE64B46234398461DD174
:1014A00008239946063B0025834600938FE6524663
:1014B000224309D1022349461943184B89469C46C9
:1014C00000240220E3449DE603234A461A43134BBB
:1014D00091469C4652460320E34493E60C239946EA
:1014E000093BA0468346009371E6042399460023F6
:1014F0009B4601330025009369E6C046FF070000C4
:1015000001FCFFFF24F10008FF030000FFFFFFFEC6
:10151000FE070000F30300000DFCFFFF01F8FFFFD2
:101520004946012319438946002401206AE6002325
:1015300080249A4600258A4B24037AE601256D42D1
:1015400001239B1A382B00DD70E61F2B00DCBFE067
:101550001F2149428A1A4146D1400A00202B04D05B
:101560004146804B5B4499400D436B1E9D410723D0
:101570002A431D0000241540134200D1D4E00F215E
:1015800000231140042900D1CBE0111D914292416A
:1015900052429B180A00190200D4C2E00123002421
:1015A000002546E6802341461B03194208D01C4211
:1015B00006D11C432403BA461500694B240B38E6B8
:1015C0008024434624031C432403B246644B240B6B
:1015D0002FE6002B00D103E7A619681EA64200D211
:1015E0008DE08E4200D2A3E000D1B3E00500F5E625
:1015F000AA4200D939E64346DE0758086B081E4365
:10160000ED0739E6484600F0F5FD0100020015310E
:1016100020321C2900DC2CE74B460838834000258B
:10162000984632E700F0E6FD03001A00153220303C
:101630001C2A00DC00E75446083B00229C4005E7DA
:101640003619013BB44200D9A6E6B24200D8A3E65F
:10165000831E3619A0E60919013D8C4200D98DE69A
:101660008A4200D88AE6851E091987E60F232B4097
:10167000042B00D1BCE605235B42AB429B41043501
:101680005B42ED089844B4E6AF4200D960E682427E
:1016900004D800D05CE6AE4200D859E602235B4293
:1016A0009C46009BE0449C4665449D429B415B42B6
:1016B0001B19C0184DE68A4200D80EE6831E091990
:1016C0000BE68A4200D8F4E5831E98460919F0E536
:1016D0002549280059448D4042468A40691E8D4163
:1016E0004146D840D94002432A430B00510700D15C
:1016F00051E70F211140042900D046E74BE70500D0
:101700008E4200D06AE6009A934200D066E667E611
:10171000164A5A44002A00DC10E7012300259844A9
:1017200067E65D075B021C0BD2080023154380E5CA
:101730000098023D42008242BF417F423C19361967
:101740000092DDE78024434624031C432403044B1A
:10175000240B6EE5009A9A42EAD30500D3E7C0460F
:10176000FF0700003E0400001E040000FF0300000D
:10177000F0B54E464546DE4657469046E0B5170062
:101780001A03120B0500844619480E034C009146BB
:101790005A00DB0F9B46360B640DC90F520D844275
:1017A00019D0824210D0012094420ED14E450CD166
:1017B0000120C44509D1594517D0002C05D130006E
:1017C0002843431E984100E00120F0BCBB46B246CE
:1017D000A946A046F0BD330001202B43F5D1A2421B
:1017E000F3D14B463B43F0D1E2E70020EDE7C046A2
:1017F000FF070000F0B54746CE460400180016006B
:101800001B031B0B2D4D4A00994680B543000F0367
:10181000A446B0463F0B520DC90F5B0DC00FAA4244
:1018200021D0AB4213D0002A22D13C43002B02D15D
:101830004D462E4322D0002C10D0814222D00220CF
:10184000013908400138C0BCB946B046F0BD4D462C
:101850002E4329D1002AF0D13C43EED10028F2D109
:1018600001204042EFE73D0025431DD19342EED0D9
:10187000002BE2D14C462643DFD1E0E70020002CCC
:10188000E1D0DCE79A420ADCE8DB4F45D7D80ED03E
:1018900000204F45D7D20029E2D00800D3E74342C9
:1018A000584140000138CEE702204042CBE7C44512
:1018B000C5D80020C445C6D2EDE7C046FF070000EA
:1018C000F0B54746CE460400180016001B031B0B5C
:1018D0002C4D4A00994680B543000F03A446B046FC
:1018E0003F0B520DC90F5B0DC00FAA420DD0AB428A
:1018F00010D0002A27D13C43002B11D14D462E4356
:101900000ED10020002C15D00EE03D00254310D153
:10191000934218D14D462E430BD1002A02D13C43AD
:10192000002C0BD0814214D002200139084001382C
:1019300000E00220C0BCB946B046F0BD0028F9D195
:1019400001204042F6E7002BECD14C462643E9D17A
:10195000EAE79A4204DD4342584140000138E9E792
:101960009A42EBDB4F45DFD806D000204F45E1D24D
:101970000029E5D00800DDE7C445D5D80020C445DE
:10198000D8D2F5E7FF070000F8B557464E46454662
:10199000DE46E0B51E0017004A000B03520D5B0A3D
:1019A0009046420F1A43CD0FCD4C3103C3009446ED
:1019B00070007A0F490AFF009A46B946400DF60FAB
:1019C0001143A04200D1B1E001225640B346B542D6
:1019D00000D188E04246121A002A00DCAEE000285E
:1019E00000D1C1E0BE48804500D151E18020000413
:1019F0000143382A00DD7BE11F2A00DDEEE12020D3
:101A00003E00801A0C00D640D14087406246844098
:101A1000521A781E8741944634432743DC1BA34265
:101A20009B4162465B42D31A99464B461B0200D447
:101A300018E14B465802430A99464B46002B00D109
:101A400037E1484600F0D6FB010008392023220088
:101A500048465B1ADA4088408C404346104388452C
:101A600000DD36E1C91A4B1C1F2B00DDEAE0202205
:101A70002600D21A01009440DE40D8400023914055
:101A8000621E94418146984631430C43630709D056
:101A90000F232340042B05D0231DA342A4416442FD
:101AA000A1441C004B461B0200D4DEE041468C4B97
:101AB0000131994200D1E7E04B468A48E4080340EF
:101AC000180049055B07400223434A0D040B120529
:101AD000ED0722432A4318001100F0BCBB46B24672
:101AE000A946A046F8BD4246121A002A52DD002837
:101AF00000D19CE0A04500D1CAE080200004014351
:101B0000382A00DD49E11F2A00DC97E110000E00B1
:101B10002038C640202A04D04020821A91400F432A
:101B2000B9464C46621E944134433AE10A003A43B6
:101B300028D0B346B5422BD06B4A4244002A5DD030
:101B400042464446821A002C00D0F5E065461D430B
:101B500000D19CE1551E012A00D1FBE1604CA2425C
:101B600000D1BDE12A00F0E00800384300D1C3E015
:101B7000501E012A00D1A8E1594CA24200D187E0B1
:101B8000020036E701225640B346B54200D021E7B5
:101B9000554A4244002A00D1B5E042464446821AE2
:101BA000002C00D138E14E4EB04200D1DEE180265B
:101BB000644636043443A446382A00DD96E11F2AE1
:101BC00000DD24E22026B41AA24664465646B440FC
:101BD000A1461C004E46D440264334005646B3402E
:101BE0005E1EB3411C436346D340C918E419BC428E
:101BF000BF417F42B94680468944D8E040463B4CCD
:101C00000130204200D0B4E04046002800D044E13A
:101C10006046184300D190E10800384300D0AAE1A3
:101C20006146DB0849070B436146CC0827E0080002
:101C3000384361D0501E012A00D139E1A24227D099
:101C400002005DE702001F39CA401100202B03D0BB
:101C50004022D31A98400443631E9C4100239946B6
:101C600098460C43630700D012E74B464A46E40807
:101C70005B072343D408424619498A420ED0240305
:101C80005205240B520D22E70A00002400231EE710
:101C9000DB086246520713436246D4081A00224307
:101CA00000D1FCE180221203144324030C4A240BCC
:101CB0000DE7200000F09EFA010018311F2900DC1A
:101CC000C4E608388440434620000024884500DCF0
:101CD000C8E6044A5B1A104098468146D6E6C046DC
:101CE000FF070000FFFF7FFF01F8FFFFFE07000076
:101CF0000F437A1E974191E66146DB0849070B4383
:101D00006146CC08B8E74046D34C0130204200D0B1
:101D1000A2E04046002800D001E16046184300D10F
:101D20005EE10800384300D05FE16146DB08490707
:101D30000B436146CC08A2E7C84DA84200D1CFE0D2
:101D4000802564462D042C43A446382A56DC1F2ADD
:101D500000DDD1E020251E00AD1A6446AB40AC404A
:101D6000D6405D1EAB41344323436446D440091B37
:101D700049E06046DC1B461AA3428041404281464E
:101D800030004E46801B8146000276D44B462343EA
:101D900000D052E60024002571E739430C00621E92
:101DA0009441E4189C429B415B42634499464B46F4
:101DB0001B0200D456E701239C46A84BE0449845FB
:101DC00038D04B46A648012203401800630814404F
:101DD0001C43C3071C434308994657E610000E00F6
:101DE0002038C640202A04D04020821A91400F4358
:101DF000B9464F467A1E974137430FE662461A436B
:101E000013005A1E9341FC1AA742BF417F42CB1BCD
:101E100099465D46804608E666461E4300D1BEE010
:101E2000561E012A00D109E18C4CA24200D119E1D1
:101E30003200C1E642460024002348E620200C0080
:101E4000801A3E0087408440D640781E8741D140AA
:101E500034433C438C44A4E7804A904200D1E9E0FB
:101E6000DF199F429B4161445B42C918CC077F0840
:101E70004B08994680463C43F4E6FC1AA742BF4112
:101E800063467F42C91ACB1B99465D46D5E5FF08DC
:101E90004B075D463B43CC08EEE662461A4300D052
:101EA00082E00B003B431BD1802400252403F9E68C
:101EB000DC199C429B41614489465B4299444B46F4
:101EC0001B0244D401239846CCE6DC1B6246A342A5
:101ED0009B41511A5B42CB1A994601239846A4E5CF
:101EE000FF084B075D463B43CC08D7E662461A43E2
:101EF0001400631E9C4179E615006446203DEC40C9
:101F0000A046202A05D040256446AA1A94402343BF
:101F10009A465446631E9C414346234373E76246F8
:101F20001A4323D00A003A4300D0A0E06246DB08FF
:101F3000520713436246D408B0E60B003B4300D17E
:101F400028E7FF084B075D463B43CC0897E6022392
:101F5000984636E7FC1AA742BF4163467F42C91A3A
:101F6000CB1B994601235D4698465EE54B07FF086B
:101F70003B43CC0892E6DC1B6046A342B641401AC4
:101F80007642801B8146000260D5FC1AA742BF4101
:101F900063467F42C91ACB1B99465D4676E5FF082A
:101FA0004B073B43CC0867E60A00DB083A4300D105
:101FB0006FE66246520713436246D408802212033A
:101FC000144207D0C808104204D15D460400FB0843
:101FD00049070B435A0FDB00DB08520713435DE64A
:101FE0004B07FF083B43CC0849E6DC199C429B4168
:101FF000614489465B4299444B461B0200D431E65A
:102000004A46174B1A400123914698462AE6160085
:102010006446203EF440A046202A05D0402664466F
:10202000B21A944023439A465446631E9C41434649
:102030001C43DBE502000024002348E5DC19BC4218
:10204000BF41614489467F42B94438E74B46234348
:1020500000D19FE606E6C046FE070000FF0700002D
:10206000FFFF7FFFFF084B073B43CC0816E66246A5
:10207000DB08520713436246D4088022120314423D
:1020800007D0C808104204D15D460400FB08490788
:102090000B435A0FDB005207DB081343FEE5002316
:1020A000014A1C0013E5C046FF0700000A0030B5D6
:1020B000134C530009030500090B00205B0DD20FE0
:1020C000A34204DD0F48834202DD0F4BD01830BD20
:1020D0008020400301430D48C01A1F2808DD0C482A
:1020E000C31AD9400B005842002AF0D11800EEE77D
:1020F000084CC540A446634499400B002B43F2E7CB
:10210000FE0300001D040000FFFFFF7F33040000FA
:1021100013040000EDFBFFFF10B5041E10D000F00B
:1021200069F80F4B1B1A0A2811DC0B222100121A26
:10213000D14015300A035B058440120B5B0D01E0B2
:10214000002300221B0513432000190010BD2200AC
:102150000B3882405B0512030024120B5B0DF1E784
:102160001E04000070B543004602C40FFE201B0E83
:10217000591C750A08420CD0E022920094466D0763
:10218000360B63441B053343E4072343280019003F
:1021900070BD002B14D1002D1BD0280000F02AF8B0
:1021A0000A281CDC0B232E001B1ADE40030015330B
:1021B0009D400E4A3603121A5205360B530DE1E7C5
:1021C000002D09D08022360B1203094B6D071643F0
:1021D000D8E700230026D5E70026054BD2E7030009
:1021E0000B3B9D402E000025E3E7C046890300001D
:1021F000FF0700001C2101231B04984201D3000C9F
:1022000010391B0A984201D3000A08391B09984269
:1022100001D30009043902A2105C40187047C0467F
:10222000040302020101010100000000000000009F
:1022300010B5002903D1FFF7DDFF203002E00800D0
:10224000FFF7D8FF10BDC0460721012210B5134C7F
:102250000023A1631249626322610332216062613B
:102260008021220009062C3220002384E363A3622C
:102270006160A360E360A361E361137002F0A6F8FC
:10228000002801D000F036F90021200002F0CCFA3D
:10229000002801D000F02EF910BDC046B801002082
:1022A00000240140054B02689A4205D18023044A6C
:1022B0009B00516B0B4353637047C04600240140A1
:1022C00000100240084B02689A420CD18022074B52
:1022D0009200596A06480A435A62596A0140596293
:1022E0005A6B02405A6370470024014000100240BC
:1022F000FFFDFFFF014B024A1A607047B801002042
:102300000024014073B508220021060068460CF045
:1023100054FEFFF799FF08231F494A681A42FCD070
:1023200080231E4D1E4C6A6B9B00134300216B6380
:10233000200002F079FA1B4B694600931A4B2000EB
:10234000019302F01DFA802369465B01200000968C
:10235000019302F015FA002801D000F0CBF820001C
:1023600002F062F9002801D000F0C4F80121200039
:10237000494202F0A3F9200002F082F9200002F0A5
:10238000FBF90600200002F0FBF86B6B074A3000F7
:1023900013406B6376BDC0460070004000100240E1
:1023A000B8010020FFFF070001100000FFFDFFFF44
:1023B00010B50848FFF7A6FF01000020814208D0B1
:1023C000054B06481B8843434808C018FDF7C2FE6A
:1023D00080B210BD000002447800F81FB80B000066
:1023E00007B50120084A116B01431163136B0022EA
:1023F0000340110001930A30019B02F065FA0B20A3
:1024000002F08CFA07BDC0460010024010B592B031
:102410002822002106A80CF0D0FD142200216846D5
:102420000CF0CBFD022305930E9380231B03109326
:102430008023012210241B0405A8089209941193FB
:1024400003F0ECFA002800D0FEE78023114A5B0578
:10245000916B0B439363104B10491A681140802213
:1024600012010A431A6059680A0022402142FAD137
:102470000F2300930C3B0193E0230121DB0068460E
:1024800002920393049203F00FFD002800D0FEE7B0
:1024900012B010BD0010024000700040FFE7FFFFC7
:1024A00010B501F0B5FEFFF7B1FF104C104B200046
:1024B0002360002323618133FF336360023BFF3BD2
:1024C000A360E36005F05CF905F074F901F094FA9B
:1024D00005F074F901F0C8F8012803D101F0F4F80F
:1024E00001F0C8F8200005F060F9F1E714020020BF
:1024F000002C0040FEE7000030B5002591B014220A
:10250000002101A80CF059FD2822290006A80095F9
:102510000CF053FD264C274B200023601F23A360A3
:10252000254B6560E36025616561A561E56103F0A8
:1025300035FFA84201D0FFF7DDFF6B4600222000E7
:102540009D8001A99D710495059503F08FFF0028DA
:1025500001D0FFF7CFFF6A460123002513705370A7
:102560009370D57069462A00200004F003F8A84251
:1025700001D0FFF7BFFF6B461D839D76A0231B058F
:102580000C9319231E226B44DA77802300225B0010
:10259000200006A9079509950A950B950D950F93AF
:1025A00004F054F8002801D0FFF7A4FF11B030BDAB
:1025B0002802002000280040FF03000010B504009E
:1025C0008EB03422002101A80CF0F7FC0F4B2268DA
:1025D0009A4218D1042301A80193FC33039303F01A
:1025E0001DFA002801D0FFF785FF8023084ADB028F
:1025F000116D02200B4313650022110002F064F9F3
:10260000022002F08BF90EB010BDC0460028004039
:1026100000100240014B18687047C0467802002045
:102620000320704710B5410E7D220023C001FDF745
:1026300045FF10BD10B57D2200230021FDF75EFF90
:102640004906C009084310BD0648074B016810B58C
:10265000CA68D2B21343CB608021490003F0D6FD93
:10266000002010BD280200207FFEFFFFF7B5254E99
:102670000500002230000C0004F0C8F8224F0022B0
:10268000BB6A29003000019304F0EAF8002221001F
:10269000300004F0BBF86B46BA6A9B8892B29A424B
:1026A000ECD10321EA78194E6F7856430A40534221
:1026B0005A415342164A013F1340164A03369B18AB
:1026C0003D227A437F00FB400132D00F8018AA7868
:1026D000B608013A4010961986190B400E48F31AB5
:1026E0004343E1202278000150433C2261784A4371
:1026F0008018A2788018C01863688002C01A074B3F
:10270000C018FEBD2802002000280040B5050000CA
:10271000B0AAAAFFA0AA990080510100FF030000FF
:1027200010B5044C2000211D1830FFF79FFF2060DA
:1027300010BDC046780200207FB5684601A9FFF7AA
:1027400095FF024B1B68C01A07B000BD780200203D
:10275000F0B587B00600FFF7EFFF0021301A03281D
:1027600000D8012102200BF01FFE0BF049FE3D4B6B
:102770005A791D7901929A799F680292DA790392C7
:102780005A7E04929C7EDB7E0593FFF75DFF364BFD
:10279000B205DF1B920DBA18B30A344E92B2A0B242
:1027A000B3423FD8E121ADB209018B423FD2694625
:1027B0008E883B2B40D8970ABC02141B029AA4B205
:1027C000BF18FF18BFB23B2F3AD83B2E3DD8172D6C
:1027D00040D8049B059A013B920740D1244AD15C22
:1027E000884202D9FDF726FE88B21F4B21491C1BE7
:1027F000A0231B058B614B1CD877039B4C60CB70CF
:102800000024802322005B001B488F704E700D70E7
:10281000CC614C614B62CC600C6103F017FF20006F
:1028200007B0F0BD154901305B1880B2B8E7144C11
:1028300001351B19ADB2B8E701363C3BB6B2B8E77B
:102840003C3F0136BFB2B6B2BDE73C3E0135B6B241
:10285000ADB2BAE7183D0130ADB280B2B7E7094A70
:10286000BDE7C04678020020FF0300007F51010051
:1028700070F100084C0200202802002080AEFEFF0C
:10288000F0F1FFFF64F1000830B587B0050001A941
:102890006846FFF7EBFE040080057D22002300213F
:1028A000800DFDF72BFEC0092880A00A07B030BDBF
:1028B00010B502000021024803F0F4FF10BDC0462D
:1028C0002802002010B502000121024803F0EAFFAF
:1028D00010BDC0462802002010B50021014803F0B9
:1028E000E7FF10BD2802002010B50121014803F0C8
:1028F000DFFF10BD2802002030B5114C89B02378CD
:10290000002B19D120330193802301A85B0202938D
:1029100003F0B8FB002800D0FEE7FFF7EDFD8021B3
:10292000084D4900280003F071FC280003F0C6FFA1
:10293000FFF7F6FE01232370002009B030BDC0462A
:1029400074020020280200207FB50020044B1B7871
:10295000834203D0684601A9FFF788FE07B000BD97
:102960007402002070B57D220023410EC001FDF7E6
:10297000A5FD0400FFF7E8FF0500FFF7E5FF401B9A
:10298000A04200D370BDC046F7E710B50CF036F991
:1029900010BD704710B5EFF3108472B601F060FB04
:1029A0000423054A11680B43136084F31088012146
:1029B000080002F09FFF10BD0070004010B5EFF35B
:1029C000108472B60122104B19680A431A6004225F
:1029D00019681142FCD08022196852040A431A6017
:1029E0008022920419681142FCD00322D9680A435C
:1029F0000C21DA60DA680A400C2AFBD101F0A2FA55
:102A000084F3108810BDC0460010024010B50121AB
:102A1000002002F037FF10BD704770478023094A3D
:102A20005B05916B10B50B43936302F023FF02F03B
:102A3000A3FF0823044A11680B43136002F092FFBE
:102A400010BDC046001002400020024010B5040036
:102A500086B01422002101A80CF0AFFA0F4B2268B7
:102A60009A4219D102210E4C0E48E26A0A43E262F0
:102A7000E36A0B400093009BC0230193AE3B02939B
:102A80000F3B049301A9023B059302F069FA8023EE
:102A9000A26B9B031343A36306B010BD0054004018
:102AA0000010024000040050054B02689A4205D114
:102AB0008023044A1B01916B0B4393637047C0460C
:102AC000002C0040001002407047C046FDE77047F0
:102AD000704710B501F0B0FB10BD704770470000A3
:102AE00010B5094802F0DAF8084802F0D7F80848AB
:102AF00002F0D4F8074802F0D1F8074802F0CEF807
:102B0000064802F0CBF810BDE00500204C04002080
:102B10003C04002044040020340400202C04002045
:102B200010B5024BD86E02F00EF810BD440500201F
:102B300010B5024804F092F910BDC04644050020CB
:102B400010B5024803F0C4FB10BDC04628020020A7
:102B500010B502F0F9FE10BD0CB407B5102105AB9D
:102B6000034A01930BF02AFD03B008BC02B01847DA
:102B7000D4F100087FB5040002AE30000D000BF068
:102B8000DFFC0422B35E10212000054A0093029B63
:102B9000FFF7E2FF2000FDF7B7FA28807FBDC046AF
:102BA000D4F10008F0B50125022704268BB00BF004
:102BB000EDFE0C22002107A80CF0FFF980222B4C1F
:102BC000A020E36A05A92B43E362E36AC0052B401A
:102BD0000193019BE36A3B43E362E36A3B40029358
:102BE000029BE36A3343E362E36A33400393039B4C
:102BF000E36A1343E362E36A13400493049B0323F1
:102C000006931B4B059302F0ABF91A4B05A91A4822
:102C1000059302F0A5F905A9184802F0A1F905A944
:102C2000174802F09DF98022E36AAB43E362E36A4E
:102C3000BB43E362E36AB343E362E36A9343E36261
:102C40000CF06EF80F480CF08DF828000CF090F89E
:102C5000FFF750FB01F0B2FA01F074F90BF09AFBA8
:102C6000290028000BF0B6FB0BB0F0BD00100240AD
:102C7000FF9F0000FFFF000000040050000800500C
:102C8000001C0050752B000810B50BF0CDFB10BDDB
:102C900013B5FFF78DFB6421FDF75CFAC4B2012286
:102CA0000021034B009402200CF0AAF8200016BD6E
:102CB000DDF100080020704770B5041E16D001F049
:102CC000C7FA050001F0CAFA01F0CEFA2B0E237004
:102CD0002B0C63702B0AA370054BE5701B681A0E52
:102CE00022711A0C62711A0AA271E37170BDC0469A
:102CF00094020020014B18607047C04694020020E7
:102D0000014B18687047C0469402002010B501219D
:102D100004200BF049FB10BD10B5002104200BF07E
:102D200043FB10BD0020704710B5FFF70DFE10BD2E
:102D300007B501900198FFF715FE07BD10B5024BCE
:102D40009B6A984710BDC04664FC000810B5024B52
:102D50009B6A984710BDC04664FC000810B5FFF799
:102D6000F5FF10BD0022014B9A717047380000201A
:102D70007047000010B503480321083001F0A0FFA0
:102D800010BDC0462C040020012210B5034B0321C6
:102D900003481A6001F094FF10BDC04624040020CF
:102DA0002C040020012210B510000021044B0CF06F
:102DB00027F8044B9B6A98470022034B9A7110BD79
:102DC000E8F1000864FC000838000020032307B580
:102DD0000022CB56012000931100024B0CF010F89A
:102DE00007BDC046F6F1000810B5002101200BF028
:102DF0000FFD10BD37B50122104B002110000BF064
:102E0000FFFF0F4C0F4D638801339BB26380002B93
:102E100005D0AB6A019398470023A37137BDEB68D7
:102E2000094801939847094B094819886B6A023988
:102E3000C9B2023001939847F0E7C04614F2000887
:102E40003800002064FC0008C0CA89363600002023
:102E5000A403002007B5002106480B0001AA019138
:102E600005F092FC011E04D10122034B10000BF06F
:102E7000C7FF07BD000000201FF20008F0B5FA27C9
:102E800017260124050087B06E447F0023002A2204
:102E90003C2102970194009602F00AFC33782A2222
:102EA000A34333703C21230028000297019400962D
:102EB00002F020FB07B0F0BDF0B5FA271726012479
:102EC000050087B06E447F0023002A223C21029730
:102ED0000194009602F0ECFB33782A2223433370EE
:102EE0003C212300280002970194009602F002FB87
:102EF00007B0F0BDF0B51726FA27012540230400DE
:102F000087B06E447F0033702B222B003C21029748
:102F10000195009602F0EEFA2B005C223C21200085
:102F200002970195009602F0E5FA07B0F0BD0000A7
:102F300010B5FA23172486B06C445B00217002930D
:102F4000F43BFF3B02003C2101930094024802F055
:102F5000D1FA06B010BDC0463C04002070B5314D1A
:102F600086B02800FFF7C6FF1726FA2301245B006E
:102F70006E4402930D2223003C2128000194009608
:102F800002F096FB3378C72B48D12800FFF776FF75
:102F90002000FFF7CDFE85216A20FFF7C9FF14212D
:102FA0006B20FFF7C5FF21006C20FFF7C1FF1E4E0D
:102FB0006D207178FFF7BCFF31786E20FFF7B8FF06
:102FC0001A4E6F207178FFF7B3FF31787020FFF74A
:102FD000AFFF174E71207178FFF7AAFF722031788A
:102FE000FFF7A6FF7B216920FFF7A2FF21002D201C
:102FF000FFF79EFF21002E20FFF79AFF21005B20A4
:10300000FFF796FF20215C20FFF792FFA9212A20DD
:10301000FFF78EFF2800FFF74FFF0024200006B0C7
:1030200070BDC0463C040020A8040020AA04002073
:10303000AC04002070B5050004000120231A012B08
:1030400001DC20B270BD2018C40F241864102100C8
:103050002800FDF709F9F1E7012210B5094B9C6939
:103060001442FCD15C68144203D0074ADA60074A74
:10307000DA600122086099691142FCD159680A435B
:103080005A6010BD00200240EFCDAB890504030259
:10309000F0B51C4B8DB09C79002C31D101251A481C
:1030A0009D711A4B1A4F03601A4B83601A4B436091
:1030B0001A4BC3601A4B03613B680B939847194B3B
:1030C000220008930823029304330093BB6916215E
:1030D0000B93280023000B9E0794069405940495F7
:1030E00003940195B047BB6C402128000B9398478F
:1030F0000D4B2A00210028000BF082FE014B9C7131
:103100000DB0F0BD38000020EC030020F52D0008C4
:1031100064FC00083D2D0008A52D00084D2D000879
:103120005D2D0008881300002EF2000870B50C4DCC
:10313000AE79002E13D10124AC7104F045FB09488F
:1031400005F0B0FB084805F0B7F9200005F0D0FA0B
:10315000220031002000054B0BF052FEAE7170BD15
:1031600038000020100000203000002039F2000854
:1031700030B58DB0032900D886E00378242B00D029
:1031800082E04378572B7FD1C378232B7CD1411821
:1031900001390B78002B77D08378412B49D16A4ACB
:1031A000011D14000C300B781D00613D052D03D866
:1031B000573B1B01D37203E0303BDBB2092BF8D93C
:1031C0004B781D00613D052D2BD8D57A5B19573BF7
:1031D000D3720231013A8842E5D15C49A068FFF719
:1031E0003BFFA0680AACFFF785FDFFF79FFF2000BB
:1031F00005F062FCE3790793A3790693637905935D
:1032000023790493E3780393A3780293637801937B
:10321000237800934E4B0022012011000BF0F0FDAB
:1032200032E01D00303D092DD3D8D57A5B19303BF3
:10323000CEE7522B2AD101200AF014FD424C45481A
:10324000A17B0AF011FFA17B43480AF00DFF434B1D
:103250003C225D6B16214248A84701200AF002FD7E
:10326000A17B3C480AF000FFA17B3B480AF0FCFE32
:103270003C2216213A48A847A37B0093394B0022F1
:10328000012011000BF0BCFD0DB030BD532B00D15F
:10329000FEE72B2B1ED12C4CA07B2E2816D80130FC
:1032A000C0B2A0730AF080FC01200AF0DBFCA17B15
:1032B00028480AF0D9FEA17B27480AF0D5FE274B03
:1032C0003C225B6B1621264809939847A37B009309
:1032D000254BD4E72D2B05D11B4CA07B0028F5D026
:1032E0000138DDE7452BCFD03E2B09D1164CA37B0F
:1032F0002E2BEBD82F202A2BD3D80533D8B2D0E7EA
:103300003C2B08D1104CA37B002BDFD00020042BDA
:10331000C7D9053BF2E74E2BB6D10AAC200005F029
:10332000CBFBE3790793A37906936379059323791C
:103330000493E3780393A37802936378019323784B
:1033400000930A4B67E7C0463800002000000808D9
:1033500048F20008110900001209000064FC00088E
:10336000C0FF953673F2000881F200082AF90008C0
:10337000052310B503700400FFF71AF864213230FA
:10338000FCF772FF024B60701B780320A37010BD26
:10339000B1040020002310B503700400FFF708F803
:1033A00064213230FCF760FF024B60701B78032011
:1033B000A37010BDB104002030B58025002387B074
:1033C0006D0004000195049398420FD10200A020E3
:1033D0002900C00501F002FFA020022301A9C005B9
:1033E0000294039301F0BCFD07B030BDA020012280
:1033F00001A9C0050292039301F0B2FDA0202200B2
:103400002900C00501F0EAFEEEE7000070B52B4C84
:103410006379012B21D0022B32D0294D002B41D1D1
:103420002A780133100018401A4200D01800FFF724
:10343000C3FF2B78002B0BD0013B2B70E37B642167
:103440002048012B01D1FA2149000BF0A1FB70BDEE
:103450000A232B7003236371F9E71B4D2A781000B0
:1034600018401A4200D01800FFF7A6FF2B78002B57
:1034700004D06421013B2B701248E6E71223E8E7F1
:10348000124D01232A78100018401A4200D018006B
:10349000FFF792FF2B78002BDCD0FA21013B2B7039
:1034A0008900E9E70A23122200202B70064B1A70CC
:1034B000064B1870FFF780FFCCE7C04638000020AD
:1034C000490000208C030020480000200804002050
:1034D00070B50400022818D80F4E7379032B14D14D
:1034E0000120FFF769FF0D4D747128000BF0BAFA47
:1034F0006421012C06D0022C0AD0F37B012B05D1CC
:10350000FA21490028000BF043FB70BD0449F9E79C
:10351000FA21C900F6E7C046380000208C030020DD
:1035200070170000F0B5304D8FB00890AF79002FC4
:103530002ED101260BAC2000AE7105F0BDFAE37967
:103540003A000793A3793900069363793000059315
:1035500023790493E3780393A37802936378019328
:1035600023780093214B0BF04BFC3800FFF7B0FFA2
:10357000EB7B002B11D11E4C089B60682670002B42
:1035800008D1FFF7F5FE6070002102200BF040F932
:103590000FB0F0BDFFF7FEFEF5E7012BF8D1154F98
:1035A0001548FB6809939847144E300005F084FADB
:1035B0000823134CF0182380089B002B10D1FFF731
:1035C000D7FE2388C0182080089B21882B710239E0
:1035D0007B6AC9B2B01C0893984700236B80D7E779
:1035E000FFF7D8FEEDE7C0463800002091F2000852
:1035F0000000002064FC0008C0CA8936A403002033
:103600003600002013B5144C23885A1E032A0AD80A
:10361000124B134A1B88012032331380FFF782FFBD
:103620000023238013BD042BFAD9E07B01280BD0A3
:1036300001230220E373FFF74BFFFFF729FD094B3E
:103640009B6A01939847EBE70023E373FFF740FF82
:10365000FFF76CFDE4E7C046380000202804002096
:10366000AE04002064FC0008014B18687047C04697
:10367000240400200022014B1A607047240400201B
:10368000FA2330B5172587B05B000B4C0293F43B4F
:10369000FF3B6D4401930B223C212000009502F07A
:1036A00007F82B78022B05D02000FFF723FC0348F6
:1036B000FFF73EFB07B030BD3C04002010270000A0
:1036C00010B5FFF7DDFF10BDFA23F0B5152587B063
:1036D0005B00954C0293F43BFF3B6D4401935E22EB
:1036E0003C212000009501F0E3FF2B789B070DD5CE
:1036F0008E4B8F4A13808F4A13808F4A13808F4BD3
:103700008F4A13808F4A13808F4A1380FA2315251E
:1037100001265B006D4402930C2233003C21200003
:103720000196009501F0C4FF2B78334200D1F3E0FD
:1037300000276B4617259F751622FA236D445B0000
:103740006A442F703C212000029300923300332200
:10375000019601F0ADFFFA235B0034223C212000EA
:10376000029300953300019601F0A2FF6A46927D14
:103770002B7812021343754A3C211380FA23162238
:103780005B006A44200002930092330035220196C8
:1037900001F08EFFFA235B0036223C2120000293C9
:1037A00000953300019601F083FF6A46927D2B78E5
:1037B00012021343654A3C215380FA2316225B0010
:1037C0006A4420000293009233003722019601F0F0
:1037D0006FFFFA235B003C21382220000293009502
:1037E0003300019601F064FF6B46987D2B78000250
:1037F000564A03431BB293800220105E534A404353
:103800000021525E5B4352438018C018FFF712FC40
:103810004F4C504B20803A003900009030000BF0A4
:10382000EFFA0023E25E4C4B4C4C00215B5E4C4DAA
:103830009A4200DC72E04B4B3A00390030000BF04A
:10384000DFFA2378BB4200D12E70012323703F4B57
:103850000021595E3C4B00229B5E8B4201DD3A4BBE
:1038600019803A4B02229A5E364B00201B5E93422F
:1038700001DD344B1A80354B314F04201B5E002094
:103880003F5E9F4201DD2E4F3B802B4F0026B85FED
:10389000884200DA398027490026885F904200DAA2
:1038A0000A80234A0020115E994200DA1380002228
:1038B000BB5E254A2E780021525E9A18D30F9B18C2
:1038C000294A5B1013801B4B00229B5E1D4A00217E
:1038D000525E9A18D30F9B18244A5B101380144B26
:1038E00000229B5E164A0021525E9A18D30F9B1845
:1038F0001F4A5B101380012E0CD1002730002F705F
:10390000FFF710FE23783A00009339003000194B7E
:103910000BF076FAFFF722FB07B0F0BD2378012BFE
:1039200000D12B70002391E73C0400200080FFFFB2
:10393000520000204E0000204A000020FF7F0000BF
:1039400054000020500000204C000020E403002020
:1039500028040020B7F20008AE040020B1040020C3
:10396000B0040020C2F20008A8040020AA0400202D
:10397000AC04002007F300080123F0B585B00193E3
:10398000DB1806000293EFF3108772B60024174D80
:10399000174B694628000093039401F01FF921009A
:1039A0003268280001F06CF922002100072000F0A5
:1039B0008BFF072000F0B2FF0E4B08350093012368
:1039C00069462800039301F009F921007268280074
:1039D00001F056F922002100072000F075FF0720B2
:1039E00000F09CFF87F3108805B0F0BD2C04002088
:1039F0000D00000606000006F0B500246E4B95B0E1
:103A0000210001206D4A1C600AF0B0FF21006C4AC1
:103A100002200AF0ABFF6B4E6B4D33683068AB6031
:103A20007368EB60FFF766F9684B1420EB600AF0EF
:103A3000BBF867480BF08EF9FFF778FB0C222100EA
:103A40000CA80BF0BAFA08230BA80B9301F0FEF9AF
:103A50006048FFF791FF1022210010A80BF0ADFA8B
:103A60008023A0209B010FA9C0050F9301F078FAD5
:103A7000EB7B012B01D1FFF70BFB022301255648FD
:103A800012930FA93E330F93119501F069FA802329
:103A9000A020002420275B000FA9C0050F931095DC
:103AA0001194129401F05CFA0FA94B480F9701F0A2
:103AB00057FA2000FFF780FC39002A00464801F041
:103AC0008DFB0121454F2A003800454B49420094A7
:103AD0000AF068FF3C4B38009989FA239B00594350
:103AE0000BF070F838000BF011F801213D4F220067
:103AF0003D4B3800494200940AF054FFFA21380047
:103B000089000BF05FF8012109AF2200374B4942D1
:103B1000374800940AF046FF380004F0CDFFFB79E7
:103B200022000793BB79210006937B792800059337
:103B30003B790493FB780393BB7802937B780193E2
:103B40003B7800932B4B0BF05BF933002A4F083383
:103B500022002100009328003B000F360BF050F9A3
:103B60003B0022002100280000960BF049F9234871
:103B7000234B84600360234BC56043600461446150
:103B8000C461046201F060FCA04201D0FEF7B2FC07
:103B9000FFF7E4F9002204000090110001201A4B05
:103BA0000BF02EF9002C02D01848FFF7C1F8184B83
:103BB000184A1A8015B0F0BD240400200D860008B4
:103BC000552E000800000808380000203C001400B2
:103BD000713100080800002000040050900400200B
:103BE000C13600080C040020053600080D3400081A
:103BF0008C03002091F2000813F300083C0400201D
:103C000000540040EC9C901018F3000810270000AE
:103C1000AE040020140500000A480B4B10B50360E9
:103C200096239B010C224360002342618360C360A2
:103C30000361836103F09AFC002801D0FEF75AFC6F
:103C400010BDC0464405002000440040F0B504000B
:103C500091B01422002104A80BF0AFF91C2200211E
:103C600009A80BF0AAF9444B22689A4200D081E0DF
:103C70000122424BD96A1143D962D96A114001919C
:103C80000199D96A1143D962D96A11400291029906
:103C90008021986B890208439863186B104318635E
:103CA000186B02400392039A9A6B09A81143996317
:103CB0000223099306330C9302F0E4F9002801D0A3
:103CC000FEF718FCA020002504260227032304A9E0
:103CD000C0050597079304960695089601F040F9EC
:103CE0000823A0200493073B0693C005DB1904A911
:103CF00005970793089601F033F9214F214B3800BF
:103D00003B601023BB6070337E60FD603B617D6172
:103D1000BD61FD613D6200F01DFEA84201D0FEF7CD
:103D2000E9FB194D194B80222B6004236B600023A3
:103D30002800E766BC62AB60EB602A616B61AB6137
:103D4000EB612B6200F006FE002801D0FEF7D2FBEB
:103D5000012200210B202567AC6200F0B5FD0B208D
:103D600000F0DCFD1C200122002100F0ADFD1C2034
:103D700000F0D4FD11B0F0BD00440040001002403E
:103D8000FC04002080000240B40400206C000240CB
:103D90000B4B026810B504009A420FD1A020094ACB
:103DA0000949936BC0050B4093630C2101F096F910
:103DB000E06E00F013FE1C2000F0BCFD10BDC046FC
:103DC0000044004000100240FFFFFDFF10B5044B0F
:103DD0001860FEF705FBFFF71FFF002010BDC0466F
:103DE000CC0500208022094B9202996A10B50A4343
:103DF0009A629A6A064907480A409A62FFF7C8FF22
:103E00000B2000F097FD002010BDC04600100240BE
:103E1000FFFFFDFF4405002010B50A000100024825
:103E200002F072FF002010BD4405002013B5802170
:103E3000104B114C1860019A89032000009103F087
:103E400047FC802223685202D9691142FCD18022AA
:103E5000D203D9691142FCD0996820000A439A60C4
:103E600003F07EFC10222000044903F0FBFB00203D
:103E700016BDC046C805002044050020D00500201E
:103E800010B5024B00201B68984710BDCC050020E0
:103E90000B4B70B51B6804000A4D002B0AD00200C2
:103EA00001005A325831128809882800891A89B2CB
:103EB0000022984729001022200003F0D3FB70BD98
:103EC000C8050020D0050020074B70B51B68040012
:103ED000064D002B02D0002228009847290010220E
:103EE000200003F0BFFB70BDC8050020D0050020F6
:103EF0000D4885460D480E490E4A002302E0D4586D
:103F0000C4500433C4188C42F9D30B4A0B4C002321
:103F100001E013600432A242FBD300F077F90BF00A
:103F20001FF8FEF7BDFAFEE7002000200000002089
:103F30009C01002038FD00089C010020A0180020F2
:103F4000FEE70000F0B5012591B0424C0C220021A3
:103F500008A80BF032F8E36AA0272B43E362E36A78
:103F6000FF052B400093009B3B4B38000793032336
:103F70000993802306A91B02069300F0F1FF022299
:103F8000E36A00261343E362E36A06A91340019340
:103F9000019B0823314806930796089600F0E0FF3E
:103FA00002220421E36A2D481343E362E36A069187
:103FB0001340029306A9029B0896079500F0D0FFD4
:103FC00032000421254801F009F9E36A02222B435B
:103FD000E362E36A38002B400393039BE36A0BA977
:103FE0002B43E362E36A2B400493049BE36A2B4375
:103FF000E362E36A0C922B400593059B03230E9327
:104000007D330D920B930F9600F0AAFF40233800EA
:104010000BA90B930F9600F0A3FF202338000BA9E8
:104020000B930F9600F09CFFE36A38002B43E3628A
:10403000E36A10242B400B9306A90B9B0795089667
:10404000069400F08DFF2A002100380001F0C6F828
:1040500011B0F0BD0010024000001110000400502B
:10406000F0B5002287B004211548A02401F0B6F86D
:104070000123802740262025E4052000029301A982
:10408000DB180393019700F06BFF200001A9019654
:1040900000F066FF200001A9019500F061FF3900E2
:1040A0002000002201F09AF831002000002201F0E7
:1040B00095F800222900200001F090F807B0F0BD2B
:1040C0000004005070B50400094D0A49280000F0B2
:1040D000DEFD28002268002100F0D2FD002207202A
:1040E000110000F0F1FB072000F018FC70BDC04685
:1040F000E00500200F00000605207047F0B51426EB
:1041000087B03200002101A80AF057FF02200124E5
:104110000327154A154DD16A0143D162D36A02942F
:10412000034000930830009B0497FEF701FE28002F
:1041300001A9019400F014FF00222100280001F0E1
:104140004DF83000FEF7F4FD280001A90297019414
:1041500000F006FF00222100280001F03FF80A20AD
:10416000FEF7E6FD07B0F0BD00100240000400506D
:1041700010B50821024801F02BF80128F9D010BD34
:1041800000040050020010B5002805D1A020102125
:10419000C00501F023F810BD0122F7E7020010B5B9
:1041A000002804D10421034801F018F810BD0122B1
:1041B000F8E7C046000400500020704710B503F037
:1041C00057FB10BD1FB50E246B466C44D8800633D8
:1041D00001222100180003F007FB208804B010BD65
:1041E00010B5A024E40500221021200000F0F6FF05
:1041F000C020FFF7E7FF0020FFF7E4FF01221021B6
:10420000200000F0EBFFFFF7B3FF10BD7047000088
:104210000223084A10B5116803200B431360FEF710
:1042200081FD041E03D1FEF7F9FB200010BD01241F
:10423000FBE7C04600200240034A044B11681B788C
:104240005B1813607047C046E80500205C00002042
:10425000014B18687047C0465000F81F014B1868A2
:104260007047C0465400F81F014B18687047C0469D
:104270006400F81F084B13B5040008491868FBF7E1
:1042800069FF44430194019B002B00D113BD019BA6
:10429000013B0193F7E7C0465800002040420F0061
:1042A0000321036870B5040098680840012801D014
:1042B000002070BD1A680242FAD005229D681540A0
:1042C000012D19D19868033A02439A601960FEF7EC
:1042D0002BFD060023689B682B42E9D0FEF724FDE6
:1042E000801B0A28F6D91023626D012013436365F1
:1042F000A36D1D43A565DCE71023626D1343636561
:10430000A36D0343A365D4E70321036870B59A68DE
:1043100004000A40012A04D11968114201D000208A
:1043200070BD9968134A114208D010230120626DB4
:1043300013436365A36D0343A365F1E701259A6801
:1043400028002A439A60FFF795FFFEF7EDFC060070
:1043500023681B682B42E2D1FEF7E6FC801B0A288B
:10436000F6D91023626D012013436365A36D1D43CD
:10437000A565D5E7170000800422036870B5996829
:104380000400114201D1002070BD9968114206D08D
:104390009A68920703D4102299680A439A60FEF73C
:1043A000C3FC0426050023689B683342EBD0FEF76C
:1043B000BBFC401B0A28F6D910230120626D134371
:1043C0006365A36D0343A365DEE7000070B50400D9
:1043D0000120002C1BD0636D002B06D1220050322F
:1043E000A36520001370FDF75DFF636DDB0606D447
:1043F00023680422996808001040114208D0102355
:10440000626D01201343636500235034237070BD37
:10441000626D5549114002220A4362650322996880
:104420001140524A012902D11D680D4219D180263E
:104430006168F6054D006D08B54203D080252D0654
:10444000A94276D11D69AD00AD081D611D692943E2
:1044500019611825D968A943D960D968A568294385
:10446000D9601168424D29401160616B1568490699
:1044700029431160802299685205114202D199683E
:104480000A439A60DA683B490A402169DA60DD68CC
:10449000E268022900D10420266B611C32432A43C2
:1044A000A569C97FAD032A43E569ED032A434D039E
:1044B0002A4325002C352D786D002A430243C22063
:1044C000DA60626AFF30824204D0A56AD8682A4363
:1044D0000243DA60A21CD27F012A06D1002934D11E
:1044E0008022D96852020A43DA60E16B1A69012915
:1044F00033D12148656C02401A61226C18692A4345
:10450000A56C2A4302431A611A69114319610721F4
:104510005A6900208A435A615A69A16B0A435A6159
:104520000322A065636D93431A000123134363655F
:104530006DE71D69114EAD00AD081D611568354070
:10454000156015682943116083E72021606D0143E0
:104550006165A16D0A43A265C7E701210A42D6D071
:104560001A698A431A61D2E7FDFEFFFF082701405E
:10457000FFFFFFFD1902FEFF03FCFFFFFFFFC3FF6C
:1045800070B504000125002811D00223426D1343A9
:104590004365FFF7F1FE051E37D12000FFF780FECF
:1045A0000500012805D1012500235034237028007F
:1045B00070BD01236365236815495A6820000A40CD
:1045C0005A60144A14491A609A680A409A60DA6874
:1045D00012490A40DA601A6911490A4007211A6132
:1045E0005A698A435A611A6A0E490A407F211A623F
:1045F000B4331A688A431A601A688A431A60FDF74E
:1046000061FE0023A3656365CEE70128CBD0D2E726
:1046100060F7FFFF9F080000FFFFFFEF00023E83EF
:1046200002FCFF3F00F000F0036870B59B680400D7
:1046300002205B071AD4250050352B78012B15D0AA
:1046400001232B70E369012B11D1636D0B4A00200C
:104650001A4080235B0013431C226365A065287009
:1046600023681A609968183A0A439A6070BD20005E
:10467000FFF74AFE0028E8D0F8E7C046FEF0FFFF4B
:1046800070B506005036337804000220012B12D09A
:10469000012520003570FFF76FFE002809D12000AA
:1046A000FFF7FEFD002804D1636D034A13401D434C
:1046B00065650023337070BDFEFEFFFFF8B54669E7
:1046C00004000D00082E0DD003680120DB680C26C5
:1046D000034207D02023626D5034134363600023EC
:1046E0002370F8BDFEF720FB070023681A68164206
:1046F00024D08022616D92000A436265C022D9688D
:104700001201114213D1621CD27F002A0FD11A6804
:1047100012070CD59A68520723D40C215A688A4391
:104720005A60626D1349114001220A4362650020FC
:10473000A2698242D5D10C221A60D2E76A1CD5D078
:10474000002D08D10423626D5034134363600023AD
:1047500003202370C5E7FEF7E7FAC01BA842C4D9BF
:10476000F0E72022616D0A4362650122A16D0A43D0
:10477000A265DCE7FEFEFFFF0368186C70470000CF
:10478000F8B504005034227803000D000220012AFD
:104790000BD0013820701A689168490706D520228D
:1047A000596D0A435A6500232370F8BD8023286899
:1047B000194E6F684103DB02490B0340B74219D021
:1047C000906A01439162002B08D08023134A1B0496
:1047D00011680A200B431360FFF74CFD2B689B0305
:1047E00005D580230D4ADB0311680B4313600020BD
:1047F0002070DAE7956A8D439562002B04D0074A52
:10480000074913680B4013608303F0D5034A054939
:1048100013680B40EAE7C04601100000082701407A
:10482000FFFF7FFFFFFFBFFFF8B5050050352B7876
:1048300004000220012B44D0012303222B702368A3
:1048400098681040012809D11A68024206D0202336
:10485000626D1343636500232B7032E0626D19496A
:10486000114002220A4303216265DE68DA688A4346
:10487000DA608022996812060A439A60FEF754FAB9
:10488000070023689A68002A0CDB0322D9681640C7
:104890000E43DE60636D002093431A00012313432F
:1048A0006365D8E7FEF740FAC01B0A28E9D912224F
:1048B000636D012093431A001023134363650023A3
:1048C0002B70F8BDFDFEFFFF30B5FF2503242A0045
:1048D0000440E400A24089012940D243A140C3B270
:1048E00000280ADBC0240B4B80088000C018A400FD
:1048F00003591A401143015130BD0F200340083BBA
:1049000005489B089B001B18D86902401143D961D8
:10491000F2E7C04600E100E000ED00E0002805DB22
:104920001F2318401E3B8340014A13607047C04656
:1049300000E100E0002809DB1F2318401E3B8340F4
:10494000034AD367BFF34F8FBFF36F8F7047C046E3
:1049500004E100E0F8B504000120002C35D0256802
:104960001A4B1421E818FBF7F5FB194B8000236460
:104970000223A21D6064D3772E68164BA1681E40E7
:10498000E36827690B433B4367693B43A7693B43A4
:10499000E7693B43276A3B4333432B608023DB01BA
:1049A00099420CD01C2528400D3D85400A490B68D2
:1049B000AB430B6063680D6883402B430B600020A2
:1049C0000123E0630534D377E077F8BDF8FFFDBF3E
:1049D000000002400F80FFFFA800024070B50125D3
:1049E00004002800002C21D0266814213368AB4332
:1049F00033600F4BF018FBF7ADFB1C2183006364A1
:104A00000B4000209D400D3999400A4AA31D2264A5
:104A100030605560084D2A688A432A60E06220634E
:104A20006063A063E0630534D877E07770BDC0466B
:104A3000F8FFFDBF00000240A8000240F7B5451D89
:104A40000193EB7F04000220012B29D00123A71D35
:104A5000EB77FB7F00269C466046DBB201282AD11B
:104A60000130F8772068E663676C05681C363E40C5
:104A70009D43B3400560256C6B60019B4360A36858
:104A8000102B0ED18260C160236B002B0CD00E2343
:104A9000026813430360012302681343036000208C
:104AA000FEBD8160C260EFE70422036893430360A8
:104AB00002680A23EDE70220EE77F1E730B5851DA5
:104AC000EB7F441D022B05D00423C3630023012088
:104AD000E37730BD0E2103681A688A431A60012209
:104AE000196891431960436C016C1C20034010004D
:104AF000984048600020EA77E077EAE770B5841DC7
:104B0000E37F022B04D00423C363033B180070BD72
:104B10000E210368456C1A688A431A6001221968DD
:104B2000914319601C232B4015009D40016C431DCF
:104B30004D60E2770024DC77826B1300A242E5D05F
:104B400090472300E2E7F8B51C220427466C016C6D
:104B500032403E0096400D6803681C6835420DD017
:104B60003C420BD01A68920602D41A68BA431A6003
:104B7000036B4E60002B19D0984717E002273E00C8
:104B80009640354213D03C4211D01A68920606D4A2
:104B90000A241A68A2431A600122831DDA770022D0
:104BA000431D4E60DA77C36A9342E5D1F8BD08260B
:104BB000370097403D42F9D03442F7D00E251C68AB
:104BC000AC431C6001231C009440821D4C60C363F5
:104BD000D3770022431DDA77436BE5E7030070B516
:104BE0000120002B3AD0002938D01F2205000C6884
:104BF00022401C609540204BA60120D58E680642BD
:104C00002DD0986828439860B0072BD5D8682843E2
:104C1000D860C0202600C004064086420FD103267B
:104C20003440A4000C36A640144892089200121892
:104C30009068B0430600C868A040304390604A685E
:104C4000D10712D5196829431000196002210840C4
:104C50000A420DD000205A6815435D6070BD986807
:104C6000A843D0E7D868A843D2E71968A943EBE77F
:104C70005A68AA435A60F1E700040140000001406D
:104C80000300081E01D15A6070470120FCE70300B1
:104C90000120002B01D00020196070471F220368FB
:104CA00010B51A4001239340044A51690B4204D0C5
:104CB00053614368002B00D0984710BD00040140A9
:104CC0001F2302681A401E3B9340014A53617047FC
:104CD00000040140284A802190694900030030B552
:104CE0000B40084205D00223244844692343436112
:104CF0000B00802091698000014205D001211F4CEA
:104D0000034365692943616180209169C0000142C4
:104D100005D00821194C034365692943616180204E
:104D200091690001014205D00421144C03436569D7
:104D300029436161802091698001014205D01021E1
:104D40000E4C03436569294361619169890305D567
:104D500020200A4C0343616901436161802091690D
:104D60004002014205D04021044C034365692943B8
:104D70006161936130BDC04600200240EC05002017
:104D800070B50400FDF7D0FF01260500184B9A69A5
:104D9000324221D102229969114200D09A619A6966
:104DA000D20515D49A69920512D49A6952050FD486
:104DB0009A6912050CD49A69920409D499698022DF
:104DC000080092021040114202D19B69DB0308D512
:104DD000FFF780FF012004E0621CD8D0002C01D135
:104DE000032070BDFDF7A0FF401BA042CED9F7E71E
:104DF0000020024070B5040011480E00FFF7C0FF0C
:104E0000002811D10F4B5861002C0DD0A3B2002BFC
:104E10000AD01C000C4D002E0AD0A8680443A4B28E
:104E2000E04300040443AC600548FFF7A9FF70BDF0
:104E3000AB68A3439BB2DA4312041343AB60F3E7BE
:104E400050C30000EC0500200000F81FF7B53F4DEF
:104E500004002B7C0220012B0CD00138287423681D
:104E6000034208D06168A068FFF7C4FF002802D0A1
:104E700000232B74FEBD23689B0718D5237B344F7A
:104E8000344801933B683E68FFF77AFF0028EFD172
:104E900080235B001E40019B68611E43F3431B049B
:104EA0001E432C483E60FFF76BFF0028E0D12368CB
:104EB0005B0718D5A37B264F26487E680193FFF732
:104EC0005FFF0028D4D1244B019A1E4070231A4062
:104ED0001643F3431B041E4368611E487E60FFF7C0
:104EE0004FFF0028C4D123681B0716D5637B184FDA
:104EF00018487E680193FFF743FF0028B8D1174B8D
:104F000068611E40019B13481E43F3431B041E436C
:104F10007E60FFF735FF0028AAD12368DB06A7D5FE
:104F20000B4F0C48E47B7E68FFF72AFF00289FD1D7
:104F30007604760CE4033443E64336043443686174
:104F40007C600448FFF71CFF92E7C046EC05002098
:104F50000000F81F50C300008FFF0000F0FF0000AA
:104F6000574AF0B58218541EA241002385B005327D
:104F700003920A681400DC4001D105B0F0BD01279E
:104F80003C0015009C4025400195224200D195E04F
:104F90004A6800921022009D954302950D3A5D00EB
:104FA000AA40D2439446029A013ABA420FD86246C6
:104FB00086681640CA68AA40324382604268A243AB
:104FC0001400009A12093A409A4022434260624615
:104FD000C46814408A68AA402243C260029A022A26
:104FE0000DD107240F271C40A400A740DA08920027
:104FF0008218166ABE430F69A7403E431662624696
:105000000326046822401400009A3240AA40144348
:10501000009A0460D20051D501252A4C626B2A43C4
:105020006263294A9C08A400A418A2681D00944643
:105030000F223540AD00AA4067469743A022D20513
:1050400094460297002260450DD0204A94460122E2
:10505000604508D01E4F9218B84204D01D4F320050
:10506000B84200D0039AAA40029D009F2A43A26042
:10507000194A019C1668019DE4433543FF0301D49E
:105080003500254015605668019D009F3543BF03DC
:1050900001D43500254055609668019D009F354339
:1050A000FF0201D4350025409560D568019E009F20
:1050B0002E43BF0201D425402E00D660013358E7AD
:1050C00000E4FFAF00100240000001400004005067
:1050D00000080050000C005000040140F0B5364AB2
:1050E00085B082180191511E8A4100230532039236
:1050F000019ADA4001D105B0F0BD01273A009A408B
:10510000019C009214400099019A0A4251D02B4907
:105110009A089200521891681D000E0003210D405C
:10512000AD000C31A940029131400E00A021C9050B
:105130008C46002160450DD021498C4639006045E0
:1051400008D0204F4918B84204D01F4F0131B8424F
:1051500000D00399A940B14210D11C490D68A54364
:105160000D604D68A5434D608D68A5438D60CD6889
:10517000A543CD609168029CA143916003215C002E
:10518000A14007240F261C40A400A6400268009CF2
:105190000A430260DA0892008218156AB543156264
:1051A000C2688A43C2604268A243426082688A43FE
:1051B000826001339CE7C04600E4FFAF000001407D
:1051C0000004005000080050000C00500004014092
:1051D00000690840431E9841C0B27047002A01D0C0
:1051E000816170478162FCE703689A69920701D583
:1051F00000229A6201229969114202D199690A43F7
:105200009A61704730B5039C0068234312048905F6
:105210001A43890D054B45680A43640D1C4352002F
:10522000A54352082A43426030BDC046FF63FF03D6
:10523000F7B5150002680E00916910230F000400F5
:105240001F40002019420ED02027D361009001900A
:1052500023689A693A4264D1019A002A32D004271D
:105260000120009B1F438021236849009A690A425C
:1052700002D00120D96107438021C9000A4203D02E
:105280000820D96107430738802189000A424DD0A0
:105290000222D96117432000FFF7A6FF22682549A3
:1052A00053680B40536023002022606C4133074356
:1052B00067641A70220000234232403413700120C8
:1052C000237035E0721CC4D0FDF72EFD401BB042A8
:1052D00001D8002EBCD122002368423258681178D0
:1052E000CAB2802194469A6909020A420CD08022EF
:1052F000D201104208D16146202905D059680A43DD
:105300005A60FDF711FD050023689B693B429FD160
:10531000FDF70AFD401B1928F6D9012300970193D8
:1053200096E7019A002A9AD1DF6198E70028B2D166
:10533000FEBDC04600E800FEF8B504000D001600F2
:10534000022723689B693B4201D00020F8BD320050
:1053500029002000FFF76CFF002818D16B1CF0D04B
:10536000FDF7E2FC801BA84201D8002DE9D123689B
:105370009B691A003A403B42E3D12021636C0B4306
:10538000636423004034413319705A702270012045
:10539000DCE7F8B504000D0017001E0022689369D1
:1053A0002B405B1B59424B41BB4201D000201FE008
:1053B000731CF4D0FDF7B8FC069BC01AB04201D8AC
:1053C000002EEBD123689B692B405B1B5A42534153
:1053D000BB42E3D12022636C0120134363642300AA
:1053E00041331A702200002342324034137023707C
:1053F000F8BDF8B504000E001700202523689B694E
:105400002B4201D00020F8BD3A0031002000FFF708
:105410000FFF002815D1FDF787FCC01BB04201D853
:10542000002EEBD123689B691A002A402B42E5D15C
:10543000636C2B4363642300403441331D705A7006
:1054400022700120DFE7000070B504000120002C6D
:105450003FD0250041352B78DAB2002B05D123004F
:10546000403320001A70FDF7F1FA242301212B703C
:1054700023681D481A68A6688A431A6061681B4A37
:105480000A401A619A6802409A60E268012A21D1B2
:1054900080210902314399605A68154911435960C6
:1054A000DA6861690240DA60226900200A43A16972
:1054B00009020A43DA60216AE2690A431A6001229A
:1054C00019680A431A60202360642B7020634234F9
:1054D000207070BD8421090231439960022ADBD11A
:1054E000802212015A60D7E7FF7FFFFFFFFFFFF026
:1054F00000800002F0B589B004930EAB039204CB98
:1055000004001B88059206930300413307931B7820
:105510000F000220109E202B08D1002A02D0069BEB
:10552000002B05D180239B006364012009B0F0BDEE
:10553000230040331A780220012AF7D001221A7082
:10554000FDF7F2FB802105000090192301222000C5
:105550000902FFF71EFF0028E7D12123079A39002F
:1055600013702300423307934023079A1370059B5F
:1055700060646362069B606363856B461A7C4A4B7A
:105580002000009380235B04FFF73CFE2A003100DB
:105590002000FFF7D1FE002826D1049A2368012AB3
:1055A00016D16A46127B80219A62200033000022C5
:1055B0000095FFF7EEFE002816D1638DFF2B17D85C
:1055C0008023628D9B0492B22285D2B2009014E0B7
:1055D000039A3100120A9A6220002A00FFF7ACFEFB
:1055E000002801D12368DCE70023403423709CE7C6
:1055F000FF22802322855B04009039002000FFF702
:1056000001FE2A0031002000FFF796FE002800D09E
:105610008BE7636A22681978013391626362638D54
:10562000228D013B9BB26385013A638D92B2228544
:10563000002B17D0002A15D13300802120000095BF
:10564000FFF7A7FE002800D06FE7638DFF2B23D95B
:10565000FF2323858023FF2200905B043900200074
:10566000FFF7D0FD638D002BCBD12A003100200045
:10567000FFF7BFFE002800D057E7202123680B4D1D
:10568000D9615A682A405A60230041331970079B38
:1056900040341870207049E78023628D9B0492B2D9
:1056A0002285D2B20090D9E70020008000E800FEF9
:1056B000F0B589B004930EAB039204CB04001B88B1
:1056C000059206930300413307931B780F000220D5
:1056D000109E202B08D1002A02D0069B002B05D15A
:1056E00080239B006364012009B0F0BD2300403398
:1056F0001A780220012AF7D001221A70FDF714FB54
:105700008021192300900500012220000902FFF7E3
:1057100040FE031EE7D1222207990A70220042327E
:105720000792402207990A70059A60646262069A9D
:105730004D4962856A466063127C20000091390001
:10574000FFF760FD2A0031002000FFF7F5FD00287B
:1057500027D1049A2368012A17D16A46127B402177
:105760009A622000330000220095FFF712FE002805
:1057700017D1628D3D4BFF2A17D8628D92B22285D8
:1057800000938023D2B29B0414E0039A3100120AE2
:105790009A6220002A00FFF7CFFD002801D123687C
:1057A000DBE70023403423709DE7FF22228500932E
:1057B00080235B0439002000FFF724FD3300002222
:1057C000042120000095FFF7E4FD002800D08AE7BF
:1057D0002368626A5B6A1370636A228D01336362B5
:1057E000638D013A013B9BB26385638D92B2228542
:1057F000002B17D0002A15D13300802120000095FE
:10580000FFF7C7FD002800D06DE7638DFF2B23D97C
:10581000FF2323858023FF2200905B0439002000B2
:10582000FFF7F0FC638D002BC8D12A003100200067
:10583000FFF7DFFD002800D055E7202123680C4D3D
:10584000D9615A682A405A60230041331970079B76
:1058500040341870207047E78023628D9B0492B219
:105860002285D2B20090D9E7002000800024008079
:1058700000E800FE1021024A13688B431360704752
:1058800000700040174BF0B5174A1E6805008020D5
:10589000176A34000122800004403A40064205D0D5
:1058A000002A03D01868114E30401860032618688B
:1058B000B04328430E4D186028690136B043286173
:1058C00001290BD130BF002C06D0002A04D0802241
:1058D000196892000A431A60C046F0BD40BF20BF5D
:1058E00020BFF0E70070004000000140FFFDFFFF17
:1058F00000ED00E0104B10B5104A1C6814401C600D
:1059000003241A68A243024304201A600C4A146953
:105910002043106101290AD130BF0420116981435D
:1059200011618022196892000A431A6010BD40BFBD
:1059300020BF20BFF1E7C04600700040FFFDFFFF21
:1059400000ED00E07047000070B58025044C6D024A
:1059500063692B4202D0FFF7F5FF656170BDC04659
:10596000000401408023034ADB0011680B431360ED
:105970007047C046007000408023034A9B001168B6
:105980000B4313607047C046007000400C221D4B53
:1059900070B5DC682240082A31D00C2A09D0042ACC
:1059A00025D11868184BC006C0171840174BC018EF
:1059B00070BDA2021648120F805C80222402D968B2
:1059C000A40F52020134114209D0124A00230021CF
:1059D000FAF794FD22000023FAF770FDE8E71A6851
:1059E00010231A4201D00C4AF0E7084AEEE7802063
:1059F0005B6800021B045B0F01339840D8E7054841
:105A0000D6E7C0460010024000E548FF0024F4003D
:105A100050F3000800127A0000093D00F0B50500BF
:105A200085B0002856D00C23BC4C0268E668E768B5
:105A30001E4080235B0219001F40D2073ED42B6812
:105A40009B0700D587E02B68DB0629D5002E00D008
:105A5000D8E023689B0502D5AB69002B3AD0626879
:105A6000AF492B6A0A401A4362606168EA69090219
:105A7000090A12060A43626080225B0B013312029C
:105A80009A401300E1680A06A649120F8A5CD340C7
:105A9000A54A1360A54B1868FDF744F9002830D1DA
:105AA0002B681B0700D5E4E02B685B0700D506E1F7
:105AB0006B6A002B00D08AE1002022E0082E03D080
:105AC0000C2E09D1002F07D023689B03B7D56B6834
:105AD000002BB4D1012014E06A688A4213D12268F5
